:100000000C9476010C9493010C9493010C9493013D
:100010000C9493010C9493010C9493010C94930110
:100020000C9493010C9472150C9493010C9493010D
:100030000C9493010C9493010C9493010C949301F0
:100040000C9493010C94EF020C9459180C949D1885
:100050000C9493010C9493010C9493010C949301D0
:100060000C9493010C9495010C9493010C949301BE
:100070000C9493010C9493010C94F5190C94391A77
:100080000C9493010C9493010C9493013E48656C7D
:100090006C6F20446973706C617920436F6E747269
:1000A0006F6C6C65725D0A0D00496E697469616CF4
:1000B000697A656420554152542D496E74657266A3
:1000C0006163653A20434F4D20310A0D002D2D20EC
:1000D000436F6E74726F6C6C6572626F61726420D4
:1000E000245265766973696F6E3A20312E32322060
:1000F00024206F6E6C696E65202D2D0A0D00496EEF
:10010000697469616C697A656420496E66726561BB
:1001100064204C4544730A0D00496E697469616C32
:10012000697A6564204163636C65726F6D6574659F
:10013000720A0D00496E697469616C697A656420A0
:100140004779726F736B6F7065730A0D00496E6942
:100150007469616C697A65642041442D436F6E76E1
:100160006572746572730A0D00496E697469616C19
:10017000697A6564204D6F746F722050574D0A0D77
:1001800000496E697469616C697A6564207379737A
:1001900074656D2074696D65720A0D000A0D2D2D50
:1001A0002D2D2D2D2D2D2D2053797374696D6520E6
:1001B0002D2D2D2D2D2D2D2D2D2D2D2D0A0D000A02
:1001C0000D2D2D2D2D2D2D2D2D2D4D6F746F72205C
:1001D00050574D2D2D2D2D2D2D2D2D2D2D2D2D0A05
:1001E0000D004368616E6E656C0956616C7565093A
:1001F000566F6C746167650A0D000A0D2D2D2D2D4B
:100200002D2D2D2D2D4144432D4368616E6E656C5F
:10021000732D2D2D2D2D2D2D2D2D2D2D2D0A0D0038
:10022000496E646578094779726F203109477972A0
:100230006F203209416363656C2E0A0D000A0D2D93
:100240002D2D2D2D2D2D2D2D2D52494E474255460C
:10025000464552532D2D2D2D2D2D2D2D2D2D2D2D52
:100260000A0D000A0D2D2D2D2D2D2D2D20477972D3
:100270006F2074656D7065726174757265202D2DC7
:100280002D2D2D2D2D0A0D000A0D0A0D20232323BF
:10029000232323232323232323232323232323232E
:1002A00023232323232323232353636F6F74657234
:1002B00020436F6E74726F6C6C6572626F617264F2
:1002C000204465627567204D6F6E69746F722323D9
:1002D00023232323232323232323232323232323EE
:1002E00023232323232323230A0D000011241FBECD
:1002F000CFEFD0E1DEBFCDBF12E0A0E0B1E0EEE194
:10030000F1E400E00BBF02C007900D92AA35B107DF
:10031000D9F713E0AAE5B2E001C01D92A534B107F8
:10032000E1F70C9499070C9400001F920F920FB6FE
:100330000F9211242F933F934F938F939F93AF93DB
:10034000BF93EF93FF93CF93DF93CDB7DEB7EAE888
:10035000F0E08081992780749070009721F140919E
:10036000F002842F9927E0E8F0E020813181880FA6
:10037000991FFC01ED50FD4F31832083842F8F5F47
:100380008093F0028091F00287708093F002E8E899
:10039000F0E011821082AAE8B0E0EAE8F0E08081A3
:1003A0008F7B8C9323C040913603842F9927E0E8FC
:1003B000F0E020813181880F991FFC01EB5FFC4F39
:1003C00031832083842F8F5F80933603809136039F
:1003D000877080933603E8E8F0E011821082AAE883
:1003E000B0E0EAE8F0E0808180648C93DF91CF9107
:1003F000FF91EF91BF91AF919F918F914F913F915D
:100400002F910F900FBE0F901F901895CF93DF93F1
:10041000CDB7DEB7EBE8F0E01082EAE8F0E081E487
:100420008083ADE7B0E0EDE7F0E0808181708C93F0
:10043000ADE7B0E0EDE7F0E0808180628C93109250
:10044000F00210923603A2E2B0E0E2E2F0E0808136
:10045000887F8C93DF91CF910895CF93DF93CDB7B1
:10046000DEB7E7E2F0E084E48083E6E2F0E087E8EC
:100470008083DF91CF910895CF93DF93CDB7DEB71F
:1004800021970FB6F894DEBF0FBECDBF8983A7E2D8
:10049000B0E0E7E2F0E0908180EE89238C93A7E260
:1004A000B0E0E7E2F0E08081982F89818F71892B9D
:1004B0008C9321960FB6F894DEBF0FBECDBFDF91AF
:1004C000CF910895CF93DF93CDB7DEB7A6E2B0E02A
:1004D000E6E2F0E0808180648C93E6E2F0E08081E7
:1004E0009927807190700097C1F3E4E2F0E0808179
:1004F0009181DF91CF910895CF93DF93CDB7DEB790
:1005000068970FB6F894DEBF0FBECDBF1A8219826E
:100510002EC089810E943C020E9462029C838B83D0
:100520008B819C819F938F9389819A819F938F93D5
:1005300080E091E09F938F9384E190E09F938F936D
:10054000CE0105969F938F930E94731B8DB79EB724
:100550000A960FB6F8949EBF0FBE8DBFCE010596CA
:100560000E94A31989819A8101969A83898389813E
:100570009A81883091056CF268960FB6F894DEBFC8
:100580000FBECDBFDF91CF910895CF93DF93CDB74D
:10059000DEB7EAE3F0E01082E7E3F0E080E6808394
:1005A000E4E3F0E08FEF8083E1E3F0E088E0808334
:1005B000E2E2F0E01082E1E6F0E01082E4E6F0E052
:1005C0001082DF91CF910895CF93DF93CDB7DEB73F
:1005D000E5E3F0E08FEF8083DF91CF9108951F92E4
:1005E0000F920FB60F9211242F933F934F935F9367
:1005F0008F939F93AF93BF93EF93FF93CF93DF932B
:10060000CDB7DEB72297DEBFCDBFF8948091380317
:10061000909139039A83898389819A8184309105E5
:1006200009F4D6C089819A8185309105C0F4898109
:100630009A818130910509F44AC089819A8181307B
:10064000910530F189819A818230910509F460C069
:1006500089819A818330910509F499C08AC1898181
:100660009A818630910509F412C189819A81863078
:10067000910508F4FCC089819A818730910509F4BD
:1006800035C189819A818830910509F43FC171C1D2
:100690001092370310921503A2E3B0E0E2E3F0E01A
:1006A00090818FEC89238C93A8E3B0E0E8E3F0E03D
:1006B00090818EEF89238C93EFE2F0E083E88083D2
:1006C00081E090E0909339038093380356C1EFE2C4
:1006D000F0E0808180933A0380913A0399278870F3
:1006E0009070009731F080913A03806F80933A03C5
:1006F00005C080913A038F7080933A03EFE2F0E0F7
:10070000108282E090E0909339038093380335C1E2
:10071000A8E3B0E0E8E3F0E0808181608C93809111
:100720003703482F552780913A039927382F2227DE
:10073000EFE2F0E080819927822B932B9C01CA0184
:10074000880F991FFC01EA5DFC4F31832083809163
:1007500037038F5F877080933703A2E3B0E0E2E353
:10076000F0E0808180628C93A8E3B0E0E8E3F0E001
:1007700090818EEF89238C93EFE2F0E083E8808311
:1007800083E090E09093390380933803F6C0EFE262
:10079000F0E0808180933A0380913A039927887032
:1007A0009070009731F080913A03806F80933A0304
:1007B00005C080913A038F7080933A03EFE2F0E036
:1007C000108284E090E09093390380933803D5C081
:1007D000A8E3B0E0E8E3F0E0808181608C93809151
:1007E0001503482F552780913A039927382F222740
:1007F000EFE2F0E080819927822B932B9C01CA01C4
:10080000880F991FFC01EA5EFC4F318320838091A1
:1008100015038F5F877080931503A2E3B0E0E2E3D6
:10082000F0E090818FEC89238C93A8E3B0E0E8E3BB
:10083000F0E090818EEF89238C938091ED028823E4
:1008400059F4EFE2F0E083E8808381E090E0909358
:1008500039038093380391C0EFE2F0E087E88083AA
:1008600085E090E0909339038093380386C0EFE2EF
:10087000F0E0808180933A03EFE2F0E081E0808352
:1008800086E090E0909339038093380376C0A8E324
:10089000B0E0E8E3F0E0808181608C9380913A03DE
:1008A0009927382F2227EFE2F0E080819927822BC9
:1008B000932B9093040380930303A2E3B0E0E2E35D
:1008C000F0E0808180628C93A8E3B0E0E8E3F0E0A0
:1008D00090818EEF89238C93EFE2F0E087E88083AC
:1008E00087E090E09093390380933803EFE2F0E0E3
:1008F000808180933A03EFE2F0E081E0808388E03A
:1009000090E0909339038093380337C0A8E3B0E0B8
:10091000E8E3F0E0808181608C9380913A0399272D
:10092000382F2227EFE2F0E080819927822B932B4A
:100930009093EF028093EE021092ED02A2E3B0E0FA
:10094000E2E3F0E090818FEC89238C93A8E3B0E0A0
:10095000E8E3F0E090818EEF89238C93EFE2F0E002
:1009600083E8808381E090E090933903809338039B
:1009700004C0109239031092380378942296F894A8
:10098000DEBFCDBFDF91CF91FF91EF91BF91AF91CE
:100990009F918F915F914F913F912F910F900FBE3B
:1009A0000F901F901895CF93DF93CDB7DEB72297A6
:1009B0000FB6F894DEBF0FBECDBF8A838A81813027
:1009C00019F481E0898301C01982A7E3B0E0E7E36D
:1009D000F0E0908180EF89238C93A7E3B0E0E7E318
:1009E000F0E0808187608C93A1E3B0E0E1E3F0E088
:1009F000808180638C93A2E3B0E0E2E3F0E0908139
:100A00008FEC89238C93A8E3B0E0E8E3F0E08081E9
:100A100081608C93EDE2F0E0898199279695982F7B
:100A200088279795879586658083EEE2F0E01082AF
:100A3000AAE3B0E0EAE3F0E0808180668C93ABE368
:100A4000B0E0EBE3F0E080818F798C938A81813094
:100A500019F4EFE2F0E0108222960FB6F894DEBFB0
:100A60000FBECDBFDF91CF910895CF93DF93CDB768
:100A7000DEB721970FB6F894DEBF0FBECDBF8983D6
:100A8000A2E3B0E0E2E3F0E090818FEC89238C9365
:100A9000A2E3B0E0E2E3F0E08081282F898199278A
:100AA0008370907082959295907F9827807F982789
:100AB000822B8C9321960FB6F894DEBF0FBECDBF6C
:100AC000DF91CF910895CF93DF93CDB7DEB7229713
:100AD0000FB6F894DEBF0FBECDBF8A831982A8E39C
:100AE000B0E0E8E3F0E090818EEF89238C93EFE2B1
:100AF000F0E08A818083EEE2F0E080818823DCF7F9
:100B0000EFE2F0E080818983A8E3B0E0E8E3F0E081
:100B1000808181608C938981992722960FB6F89401
:100B2000DEBF0FBECDBFDF91CF910895CF93DF938E
:100B3000CDB7DEB722970FB6F894DEBF0FBECDBF9C
:100B40008A831982EFE2F0E08A818083EEE2F0E0AE
:100B500080818823DCF7EFE2F0E08081898389815E
:100B6000992722960FB6F894DEBF0FBECDBFDF9156
:100B7000CF910895CF93DF93CDB7DEB724970FB60B
:100B8000F894DEBF0FBECDBF9C838B831A8219827F
:100B9000A8E3B0E0E8E3F0E090818EEF89238C9346
:100BA000EFE2F0E08B819C818070892F9927808310
:100BB000EEE2F0E080818823DCF7EFE2F0E0808174
:100BC0009927982F88279A838983EFE2F0E08B8119
:100BD0008083EEE2F0E080818823DCF7EFE2F0E052
:100BE0008081282F332789819A81822B932B9A83A6
:100BF0008983A8E3B0E0E8E3F0E0808181608C9332
:100C000089819A8124960FB6F894DEBF0FBECDBFBE
:100C1000DF91CF910895CF93DF93CDB7DEB72497BF
:100C20000FB6F894DEBF0FBECDBF9C838B831A82B4
:100C30001982EFE2F0E08B819C818070892F9927E7
:100C40008083EEE2F0E080818823DCF7EFE2F0E0E1
:100C500080819927982F88279A838983EFE2F0E093
:100C60008B818083EEE2F0E080818823DCF7EFE285
:100C7000F0E08081282F332789819A81822B932B62
:100C80009A83898389819A8124960FB6F894DEBF6E
:100C90000FBECDBFDF91CF910895CF93DF93CDB736
:100CA000DEB724970FB6F894DEBF0FBECDBF9C838E
:100CB0008B8313C08EE793E09A83898305C0898173
:100CC0009A8101979A83898389819A810097B9F7DC
:100CD0008B819C8101979C838B838B819C81009766
:100CE00049F724960FB6F894DEBF0FBECDBFDF9153
:100CF000CF910895CF93DF93CDB7DEB7E3E5F0E072
:100D00008AE68083E2E5F0E01082E1E5F0E080E849
:100D10008083A7E3B0E0E7E3F0E0808180618C931B
:100D2000DF91CF910895CF93DF93CDB7DEB72397AF
:100D30000FB6F894DEBF0FBECDBF898389818823AB
:100D40001CF0898184302CF08FEF9FEF9B838A8386
:100D500016C0A5E3B0E0E5E3F0E08081482F89818B
:100D6000282F332727FD309581E090E002C0880FBF
:100D7000991F2A95E2F7842B8C931B821A828A8111
:100D80009B8123960FB6F894DEBF0FBECDBFDF91D7
:100D9000CF910895CF93DF93CDB7DEB723970FB6EA
:100DA000F894DEBF0FBECDBF8983898188231CF0F4
:100DB000898184302CF08FEF9FEF9B838A8317C04B
:100DC000A5E3B0E0E5E3F0E08081482F8981282F9A
:100DD000332727FD309581E090E002C0880F991FEE
:100DE0002A95E2F7809584238C931B821A828A814C
:100DF0009B8123960FB6F894DEBF0FBECDBFDF9167
:100E0000CF910895CF93DF93CDB7DEB723970FB679
:100E1000F894DEBF0FBECDBF8983898188231CF083
:100E2000898184302CF08FEF9FEF9B838A8316C0DB
:100E3000A5E3B0E0E5E3F0E08081482F8981282F29
:100E4000332727FD309581E090E002C0880F991F7D
:100E50002A95E2F784278C931B821A828A819B81D0
:100E600023960FB6F894DEBF0FBECDBFDF91CF91B2
:100E70000895CF93DF93CDB7DEB724970FB6F894DC
:100E8000DEBF0FBECDBF1C821B822CC01A8219820E
:100E90001FC083E00E94020781E00E9402078B814D
:100EA0009C810E944D0683E00E94020781E00E941F
:100EB000020724E130E08B819C81A901481B590B7A
:100EC000CA010E944D0689819A8101969A8389837D
:100ED00089819A8185309105E4F28B819C8101960C
:100EE0009C838B838B819C81843191057CF281E092
:100EF0000E94020783E00E94020724960FB6F8942E
:100F0000DEBF0FBECDBFDF91CF910895CF93DF93AA
:100F1000CDB7DEB78DEC90E00E94CA1989EA90E067
:100F20000E94CA198CE890E00E94481BDF91CF9183
:100F30000895CF93DF93CDB7DEB722970FB6F8941D
:100F4000DEBF0FBECDBF0E94C5020E94E4020E9418
:100F5000DF180E9486070E94770A84EA98E30E94BD
:100F6000B20A60E080E00E94510B60E080E00E94E5
:100F7000990B0E94BD1581E891E00E94CA1989E68B
:100F800091E00E94CA190E942D028DE491E00E9416
:100F9000CA1981E00E94D30484E391E00E94CA1937
:100FA0000E94060289E191E00E94CA190E947A0615
:100FB0008EEF90E00E94CA1980E00E94CA0681E08C
:100FC0000E94CA0682E00E94CA0683E00E94CA0606
:100FD00084E00E943C020E9462029A83898382E339
:100FE00090E00E944D0689819A819093F20280934D
:100FF000F1020E9462029A8389832091F10230916A
:10100000F20289819A81820F931F9695879590931A
:10101000F2028093F1020E94260B0E94420B109272
:10102000410383E00E9402070E94E20B809141038A
:101030008A3018F080E00E949306809141038A3044
:10104000E0F3EDCFCF93DF93CDB7DEB7A4970FB624
:10105000F894DEBF0FBECDBF8091030390910403CF
:10106000807098700097E9F08091030390910403D9
:10107000906F9093040380930303809103039091F6
:101080000403019790930403809303038091030367
:1010900090910403809590959093040380930303AB
:1010A00009C080910303909104039F7090930403FF
:1010B000809303038091EE029091EF02807098700C
:1010C0000097E9F08091EE029091EF02906F90937B
:1010D000EF028093EE028091EE029091EF02019771
:1010E0009093EF028093EE028091EE029091EF02D6
:1010F000809590959093EF028093EE0209C08091C5
:10110000EE029091EF029F709093EF028093EE02B7
:101110008BE190E09F938F9383E191E09F938F9376
:1011200080E290E09F938F93CE0105969F938F93DB
:101130000E94731B4DB75EB7485F5F4F0FB6F894C0
:101140005EBF0FBE4DBF88E892E00E94CA1983E6D9
:1011500092E00E94CA198091EE029091EF022091D4
:101160000303309104039F938F933F932F9389E15F
:1011700091E09F938F9380E290E09F938F93CE01B5
:1011800005969F938F930E94731B8DB79EB70A9607
:101190000FB6F8949EBF0FBE8DBFCE0105960E947C
:1011A000A3198DE392E00E94CA1980E292E00E94A6
:1011B000CA191C821B8251C08B819C81880F991F88
:1011C000FC01EB5FFC4F208131818B819C81880F7A
:1011D000991FFC01ED50FD4F80819181A901481BB1
:1011E000590B8B819C81880F991FFC01EA5EFC4F93
:1011F000208131818B819C81880F991FFC01EA5DE0
:10120000FC4F808191815F934F933F932F939F93E6
:101210008F938B819C819F938F9383E391E09F9326
:101220008F9380E290E09F938F93CE0105969F93DA
:101230008F930E94731B4DB75EB7425F5F4F0FB62F
:10124000F8945EBF0FBE4DBFCE0105960E94A31954
:101250008B819C8101969C838B838B819C818830C0
:1012600091050CF4A9CF8AEF91E00E94CA1982EE91
:1012700091E00E94CA191C821B8239C08B810E9496
:101280003C020E9462029A83898329813A81C901C2
:10129000880F991F880F991F820F931F9F938F9319
:1012A00089819A819F938F938B819C819F938F9348
:1012B00081E491E09F938F9380E290E09F938F93DE
:1012C000CE0105969F938F930E94731B8DB79EB797
:1012D0000C960FB6F8949EBF0FBE8DBFCE0105963B
:1012E0000E94A3198B819C8101969C838B838B81A7
:1012F0009C818830910514F28FEB91E00E94CA190D
:10130000E6E4F0E0808191819C014427552780E04C
:1013100094E2A4EFB0E0BC01CD010E945220DA01BA
:10132000C901BF93AF939F938F938FE491E09F93F5
:101330008F9380E290E09F938F93CE0105969F93C9
:101340008F930E94731B4DB75EB7465F5F4F0FB61A
:10135000F8945EBF0FBE4DBFCE0105960E94A31943
:10136000E2E3F0E080819927FC01E074F070809165
:101370003B03282F332784E690E0AC01249FC00173
:10138000259F900D349F900D11242FEF30E0B9016F
:101390000E943F20CB019C0180913B03482F5527A1
:1013A000FF93EF933F932F938FEF90E09F938F9353
:1013B0005F934F9389E691E09F938F9380E290E053
:1013C0009F938F93CE0105969F938F930E94731BDB
:1013D0008DB79EB70E960FB6F8949EBF0FBE8DBF09
:1013E000CE0105960E94A319E2E3F0E080819927DF
:1013F000FC01E078F07080913D03282F332784E6CC
:1014000090E0AC01249FC001259F900D349F900D6A
:1014100011242FEF30E0B9010E943F20CB019C0145
:1014200080913D03482F5527FF93EF933F932F93D0
:101430008FEF90E09F938F935F934F938AE891E0B3
:101440009F938F9380E290E09F938F93CE010596B8
:101450009F938F930E94731B8DB79EB70E960FB606
:10146000F8949EBF0FBE8DBFCE0105960E94A319B2
:101470008CE991E00E94CA1960913E0370913F038C
:1014800080914203482F552780914003282F33270E
:1014900080913C0399277F936F935F934F933F9382
:1014A0002F939F938F938AEA91E09F938F9380E28B
:1014B00090E09F938F93CE0105969F938F930E9408
:1014C000731B4DB75EB7425F5F4F0FB6F8945EBFB8
:1014D0000FBE4DBFCE0105960E94A319A4960FB66C
:1014E000F894DEBF0FBECDBFDF91CF910895CF93AB
:1014F000DF93CDB7DEB7A1E3B0E0E1E3F0E08081B8
:10150000806C8C93A5E3B0E0E5E3F0E08081806C33
:101510008C93A4E3B0E0E4E3F0E08081806C8C93F2
:10152000EFE4F0E082EF8083EEE4F0E089E1808395
:10153000ECE4F0E011821082EAE4F0E01182108223
:10154000E8E4F0E011821082E6E4F0E0118210821B
:10155000A7E3B0E0E7E3F0E0808180668C93DF9161
:10156000CF910895CF93DF93CDB7DEB724970FB611
:10157000F894DEBF0FBECDBF9C838B838B819C8193
:101580002AE38939920720F088E99AE39C838B83C8
:101590008B819C819C014427552780E094E2A4EF35
:1015A000B0E0BC01CD010E945220DA01C9019A834A
:1015B0008983EAE4F0E089819A812FEF30E0B90174
:1015C0000E942B20CB019C0180913B039927AC0109
:1015D000249FC001259F900D349F900D112491836D
:1015E0008083E8E4F0E089819A812FEF30E0B9014F
:1015F0000E942B20CB019C0180913D039927AC01D7
:10160000249FC001259F900D349F900D112491833C
:101610008083E6E4F0E089819A8191838083249637
:101620000FB6F894DEBF0FBECDBFDF91CF91089506
:10163000CF93DF93CDB7DEB7A5E3B0E0E5E3F0E00D
:10164000808180648C93DF91CF910895CF93DF9355
:10165000CDB7DEB7A5E3B0E0E5E3F0E080818F7BB6
:101660008C93DF91CF910895CF93DF93CDB7DEB701
:10167000A5E3B0E0E5E3F0E0808180688C93DF9142
:10168000CF910895CF93DF93CDB7DEB7A5E3B0E058
:10169000E5E3F0E090818FE789238C93DF91CF9190
:1016A00008950F931F93CF93DF93CDB7DEB72297A3
:1016B0000FB6F894DEBF0FBECDBF89836A838A81DF
:1016C000882341F0A2E3B0E0E2E3F0E080818F7B89
:1016D0008C9307C0A2E3B0E0E2E3F0E08081806495
:1016E0008C930AE410E0E6E4F0E0808191812FEF32
:1016F00030E0B9010E942B20CB019C018981992700
:10170000AC01249FC001259F900D349F900D1124A2
:10171000F80191838083898180933B0322960FB6E1
:10172000F894DEBF0FBECDBFDF91CF911F910F9117
:1017300008950F931F93CF93DF93CDB7DEB7229712
:101740000FB6F894DEBF0FBECDBF89836A838A814E
:10175000882349F4A2E3B0E0E2E3F0E090818FE770
:1017600089238C9307C0A2E3B0E0E2E3F0E080813C
:1017700080688C9308E410E0E6E4F0E080819181D9
:101780002FEF30E0B9010E942B20CB019C01898111
:101790009927AC01249FC001259F900D349F900D87
:1017A0001124F80191838083898180933D032296DF
:1017B0000FB6F894DEBF0FBECDBFDF91CF911F9162
:1017C0000F910895CF92DF92EF92FF920F931F93A4
:1017D000CF93DF93CDB7DEB7C758D0400FB6F8949C
:1017E000DEBF0FBECDBF19A618A61CA21DA21EA249
:1017F0001FA218A219A21AA21BA28AE097EDA3E2C7
:10180000BCE38C8F9D8FAE8FBF8F80E090E0A0E017
:10181000B0E0888F998FAA8FBB8F80E090E0A0E026
:10182000B0E08A8B9B8BAC8BBD8B80E090E0A0E01E
:10183000B0E08E879F87A88BB98B80E090E0A0E016
:10184000B0E08A879B87AC87BD87198680E090E0EF
:10185000A0E0B0E08D839E83AF83B8871C8284E0D4
:101860000E943C020E9462029F8B8E8B8E899F8910
:10187000AA2797FDA095BA2FBC01CD010E94691F30
:10188000CC57DF4F688379838A839B83C458D040C9
:101890008E899F899923C4F420E030E040E857E422
:1018A000CC57DF4F688179818A819B81C458D040B1
:1018B0000E94C41EDC01CB01CC57DF4F8883998383
:1018C000AA83BB83C458D0400091F1021091F20268
:1018D000C801AA2797FDA095BA2FBC01CD010E948F
:1018E000691FC058DF4F688379838A839B83C05800
:1018F000D0401123C4F420E030E040E857E4C05861
:10190000DF4F688179818A819B81C058D0400E94D5
:10191000C41EDC01CB01C058DF4F88839983AA83A2
:10192000BB83C058D040C058DF4F288139814A81DD
:101930005B81C058D040CC57DF4F688179818A8164
:101940009B81C458D0400E94C31EDC01CB017C01A6
:101950008D018091C3019091C401A091C501B09106
:10196000C6019C01AD01C801B7010E94E31FDC0163
:10197000CB018A8B9B8BAC8BBD8B1CA21DA21EA2A4
:101980001FA218A219A21AA21BA21B8233C08B810C
:101990009927880F991FFC01EB5FFC4F8081918193
:1019A0009C01442755278CA19DA1AEA1BFA1820F08
:1019B000931FA41FB51F8CA39DA3AEA3BFA38B81B0
:1019C0009927880F991FFC01ED50FD4F808191816F
:1019D0009C014427552788A199A1AAA1BBA1820FE8
:1019E000931FA41FB51F88A399A3AAA3BBA38B8190
:1019F0008F5F8B838B81883050F28CA19DA1AEA12B
:101A0000BFA1689412F8B695A795979587951694F7
:101A1000D1F78CA39DA3AEA3BFA388A199A1AAA12E
:101A2000BBA1689412F8B695A795979587951694DB
:101A3000D1F788A399A3AAA3BBA319A618A61B82B2
:101A400035C08B819927880F991FFC01EA5DFC4FF7
:101A500080819181807098700097B1F08B81482FC0
:101A600055278B819927880F991FFC01EA5DFC4F50
:101A7000808191819C01306FCA01880F991FFC0100
:101A8000EA5DFC4F318320838B819927880F991F52
:101A9000FC01EA5DFC4F2081318188A599A5820F68
:101AA000931F99A788A78B818F5F8B838B81883049
:101AB00040F288A599A595958795959587959595D3
:101AC000879599A788A788A199A12CA13DA19F934B
:101AD0008F933F932F9388A599A59F938F9387EC1E
:101AE00091E09F938F9380E490E09F938F93CE013A
:101AF000C2969F938F930E94731B2DB73EB7245FAE
:101B00003F4F0FB6F8943EBF0FBE2DBFCE01C29619
:101B10000E94A3198CA19DA1AEA1BFA1BB237CF003
:101B20006CA17DA18EA19FA10E94691FC458DF4FA7
:101B3000688379838A839B83CC57D0403CC08CA137
:101B40009DA1AEA1BFA181709070A070B0702CA1BA
:101B50003DA14EA15FA15695479537952795822BBC
:101B6000932BA42BB52BBC01CD010E94691FC45837
:101B7000DF4F688379838A839B83CC57D040C458D6
:101B8000DF4F288139814A815B81CC57D040C458CE
:101B9000DF4F688179818A819B81CC57D0400E9438
:101BA000C41EDC01CB01C458DF4F88839983AA830C
:101BB000BB83CC57D0408CA19DA1AEA1BFA1BB23BC
:101BC0006CF06CA17DA18EA19FA10E94691FEC9673
:101BD0006CAF7DAF8EAF9FAFEC9734C08CA19DA151
:101BE000AEA1BFA181709070A070B0702CA13DA17A
:101BF0004EA15FA15695479537952795822B932B3C
:101C0000A42BB52BBC01CD010E94691FEC966CAFD3
:101C10007DAF8EAF9FAFEC97EC962CAD3DAD4EAD4A
:101C20005FADEC97EC966CAD7DAD8EAD9FADEC9756
:101C30000E94C41EDC01CB01EC968CAF9DAFAEAF11
:101C4000BFAFEC9788A199A1AAA1BBA1BB236CF05F
:101C500068A179A18AA19BA10E94691FE8966CAF37
:101C60007DAF8EAF9FAFE89734C088A199A1AAA19C
:101C7000BBA181709070A070B07028A139A14AA159
:101C80005BA15695479537952795822B932BA42BCF
:101C9000B52BBC01CD010E94691FE8966CAF7DAFEA
:101CA0008EAF9FAFE897E8962CAD3DAD4EAD5FADE2
:101CB000E897E8966CAD7DAD8EAD9FADE8970E943C
:101CC000C41EDC01CB01E8968CAF9DAFAEAFBFAFB9
:101CD000E897E8962CAD3DAD4EAD5FADE897EC963C
:101CE0006CAD7DAD8EAD9FADEC970E94C41EDC0146
:101CF000CB019C01AD01C458DF4F688179818A8195
:101D00009B81CC57D0400E94061FDC01CB0120E014
:101D100030E040E05FE3BC01CD010E94C31EDC0166
:101D2000CB0120E030E048EC51E4BC01CD010E9441
:101D3000E31FDC01CB0121EE3AE744E15FE3BC01A4
:101D4000CD010E94C41EDC01CB018EA79FA7A8ABCA
:101D5000B9AB88A599A5AA2797FDA095BA2FBC0174
:101D6000CD010E94691FDC01CB0120E030E040E69C
:101D700051E4BC01CD010E94C41EDC01CB0123E370
:101D80003DE847E25BE3BC01CD010E94E31FDC01BB
:101D9000CB018AA79BA7ACA7BDA720E030E04AE70C
:101DA00054E46AA57BA58CA59DA50E94E31FDC01D8
:101DB000CB01BC01CD010E944C1FDC01CB018C0189
:101DC00020E030E04AE754E46EA57FA588A999A9F0
:101DD0000E94E31FDC01CB01BC01CD010E944C1F1E
:101DE000DC01CB011F930F939F938F9386EE91E0BD
:101DF0009F938F9380E490E09F938F93CE01C29640
:101E00009F938F930E94731B8DB79EB70A960FB650
:101E1000F8949EBF0FBE8DBFCE01C2960E94A3193B
:101E20000E943A199A83898389819A819C01307032
:101E3000E4963FAF2EAFE497E4968EAD9FADE49766
:101E40008335910509F4EAC0E4962EAD3FADE497E1
:101E500024353105CCF4E4968EAD9FADE497833400
:101E6000910509F4C0C0E4962EAD3FADE4972F3440
:101E7000310509F44CC0E4968EAD9FADE4978134F2
:101E8000910509F47AC0FFC0E4962EAD3FADE4970A
:101E90002336310509F48CC0E4968EAD9FADE497EE
:101EA000843691054CF4E4962EAD3FADE49721368F
:101EB000310509F447C0E7C0E4968EAD9FADE497C5
:101EC0008F36910549F0E4962EAD3FADE497233768
:101ED000310509F4BEC0D7C08091BA019091BB0111
:101EE000A091BC01B091BD012AE037ED43E25CE373
:101EF000BC01CD010E94C31EDC01CB018093BA015D
:101F00009093BB01A093BC01B093BD01BCC0809174
:101F1000BA019091BB01A091BC01B091BD012AE032
:101F200037ED43E25CE3BC01CD010E94C41EDC013D
:101F3000CB018093BA019093BB01A093BC01B093F5
:101F4000BD01A1C08091B6019091B701A091B801E7
:101F5000B091B9012DEC3CEC4CEC5DE3BC01CD0142
:101F60000E94C31EDC01CB018093B6019093B701A0
:101F7000A093B801B093B90186C08091B601909149
:101F8000B701A091B801B091B9012DEC3CEC4CEC3B
:101F90005DE3BC01CD010E94C41EDC01CB01809336
:101FA000B6019093B701A093B801B093B9016BC08B
:101FB0008091BE019091BF01A091C001B091C1017B
:101FC0002DEC3CEC4CEC5DE3BC01CD010E94C31E4A
:101FD000DC01CB018093BE019093BF01A093C001AF
:101FE000B093C10150C08091BE019091BF01A091FA
:101FF000C001B091C1012DEC3CEC4CEC5DE3BC01A7
:10200000CD010E94C41EDC01CB018093BE019093E0
:10201000BF01A093C001B093C10135C08091C3013D
:102020009091C401A091C501B091C60127E137EBA1
:1020300041ED58E3BC01CD010E94C41EDC01CB017F
:102040008093C3019093C401A093C501B093C601CE
:102050001AC08091C3019091C401A091C501B091B3
:10206000C60127E137EB41ED58E3BC01CD010E94E9
:10207000C31EDC01CB018093C3019093C401A093E4
:10208000C501B093C6018091BA019091BB01A091A6
:10209000BC01B091BD012DEC3CEC4CE45EE3BC0115
:1020A000CD010E94761F18160CF00DC08DEC9CEC33
:1020B000ACE4BEE38093BA019093BB01A093BC0152
:1020C000B093BD011FC08091BA019091BB01A09156
:1020D000BC01B091BD0120E030E040E050E0BC0127
:1020E000CD010E94731F88230CF00CC080E090E0AB
:1020F000A0E0B0E08093BA019093BB01A093BC0133
:10210000B093BD018091B6019091B701A091B80143
:10211000B091B90120E030E040EA52E4BC01CD01C9
:102120000E94761F18160CF00DC080E090E0A0EA27
:10213000B2E48093B6019093B701A093B801B09335
:10214000B9011FC08091B6019091B701A091B8016B
:10215000B091B90120E030E040E050E0BC01CD0199
:102160000E94731F88230CF00CC080E090E0A0E078
:10217000B0E08093B6019093B701A093B801B093FB
:10218000B9018091BE019091BF01A091C001B091B1
:10219000C10120E030E040E050E4BC01CD010E94EC
:1021A000761F18160CF00DC080E090E0A0E0B0E4BF
:1021B0008093BE019093BF01A093C001B093C10171
:1021C0001FC08091BE019091BF01A091C001B0914C
:1021D000C10120E030E040E050E0BC01CD010E94B0
:1021E000731F88230CF00CC080E090E0A0E0B0E00A
:1021F0008093BE019093BF01A093C001B093C10131
:102200008091C3019091C401A091C501B091C60114
:102210002AE037ED43E25CE3BC01CD010E94761F6A
:1022200018160CF00DC08AE097EDA3E2BCE3809392
:10223000C3019093C401A093C501B093C6011FC010
:102240008091C3019091C401A091C501B091C601D4
:1022500020E030E040E050E0BC01CD010E94731F5F
:1022600088230CF00CC080E090E0A0E0B0E0809308
:10227000C3019093C401A093C501B093C60180919E
:10228000C3019091C401A091C501B091C60120E0A5
:1022900030E543EC57E4BC01CD010E94E31FDC01B3
:1022A000CB01BC01CD010E944C1FDC01CB017C01A4
:1022B0008091BE019091BF01A091C001B091C10178
:1022C00020E030E04AE754E4BC01CD010E94E31F66
:1022D000DC01CB01BC01CD010E944C1FDC01CB0114
:1022E0006C018091B6019091B701A091B801B091B5
:1022F000B90120E030E040E251E4BC01CD010E9490
:10230000E31FDC01CB01BC01CD010E944C1FDC01AD
:10231000CB018C018091BA019091BB01A091BC01CD
:10232000B091BD0120E030E04AE754E4BC01CD01AA
:102330000E94E31FDC01CB01BC01CD010E944C1FB8
:10234000DC01CB01FF92EF92DF92CF921F930F93AC
:102350009F938F9387EF91E09F938F9380E490E01A
:102360009F938F93CE01C2969F938F930E94731B6E
:102370008DB79EB70E960FB6F8949EBF0FBE8DBF59
:10238000CE01C2960E94A31980915A0290915B02DD
:10239000A0915C02B0915D029C01AD016EA57FA58C
:1023A00088A999A90E94C31EDC01CB012DEC3CEC4D
:1023B0004CEC5DE3BC01CD010E94E31FDC01CB01CD
:1023C0002AA53BA54CA55DA5BC01CD010E94C41E5C
:1023D000DC01CB012C8D3D8D4E8D5F8DBC01CD017F
:1023E0000E94E31FDC01CB017C018D0180915A0228
:1023F00090915B02A0915C02B0915D029C01AD01E5
:10240000C801B7010E94C41EDC01CB0180935A02AF
:1024100090935B02A0935C02B0935D0280915A029C
:1024200090915B02A0915C02B0915D0223EC35EFCC
:1024300048E45FE3BC01CD010E94761F18160CF042
:102440000DC083EC95EFA8E4BFE380935A0290930C
:102450005B02A0935C02B0935D021FC080915A02A0
:1024600090915B02A0915C02B0915D0223EC35EF8C
:1024700048E45FEBBC01CD010E94731F88230CF080
:102480000CC083EC95EFA8E4BFEB80935A029093C5
:102490005B02A0935C02B0935D0280915A0290911E
:1024A0005B02A0915C02B0915D0220E030E04AE75F
:1024B00054E4BC01CD010E94E31FDC01CB01BC014F
:1024C000CD010E944C1FDC01CB019F938F9380E2D2
:1024D00092E09F938F9380E490E09F938F93CE013F
:1024E000C2969F938F930E94731B2DB73EB7285FB0
:1024F0003F4F0FB6F8943EBF0FBE2DBFCE01C29620
:102500000E94A31980915A0290915B02A0915C02F3
:10251000B0915D022FE832EC45EF5DE3BC01CD01E7
:102520000E94C31EDC01CB017C018D018091B601AC
:102530009091B701A091B801B091B9019C01AD0192
:10254000C801B7010E94E31FDC01CB017C018D01B2
:102550008091BA019091BB01A091BC01B091BD01E5
:102560002AA53BA54CA55DA5BC01CD010E94E31F9A
:10257000DC01CB019C01AD01C801B7010E94C41E62
:10258000DC01CB01888F998FAA8FBB8F8091BE0110
:102590009091BF01A091C001B091C101288D398DEA
:1025A0004A8D5B8DBC01CD010E94E31FDC01CB0194
:1025B0002C8D3D8D4E8D5F8DBC01CD010E94E31FA2
:1025C000DC01CB017C018D0180915F029091600262
:1025D000A0916102B09162029C01AD01C801B701F6
:1025E0000E94C41EDC01CB0180935F0290936002C5
:1025F000A0936102B093620280915F0290916002A9
:10260000A0916102B091620220E030E040E85FE317
:10261000BC01CD010E94761F18160CF00DC080E0A1
:1026200090E0A0E8BFE380935F0290936002A093E4
:102630006102B09362021FC080915F0290916002BC
:10264000A0916102B091620220E030E040E85FEBCF
:10265000BC01CD010E94731F88230CF00CC080E0E8
:1026600090E0A0E8BFEB80935F0290936002A0939C
:102670006102B093620280915E028823B9F080917A
:102680005F0290916002A0916102B09162029C0190
:10269000AD01688D798D8A8D9B8D0E94C41EDC01F1
:1026A000CB01888F998FAA8FBB8F0CC080E090E000
:1026B000A0E0B0E080935F0290936002A09361027B
:1026C000B093620280915F0290916002A0916102DA
:1026D000B091620220E030E04AE754E4BC01CD0151
:1026E0000E94E31FDC01CB01BC01CD010E944C1F05
:1026F000DC01CB018C0120E030E04AE754E4688D36
:10270000798D8A8D9B8D0E94E31FDC01CB01BC017A
:10271000CD010E944C1FDC01CB011F930F939F93AF
:102720008F938DE292E09F938F9380E490E09F934C
:102730008F93CE01C2969F938F930E94731B8DB788
:102740009EB70A960FB6F8949EBF0FBE8DBFCE01FE
:10275000C2960E94A31980915F0290916002A0919D
:102760006102B091620220E030E040E050E0BC0144
:10277000CD010E94761F18160CF021C080915F02D7
:1027800090916002A0916102B09162022AE939E958
:1027900049E95EE3BC01CD010E94C41EDC01CB010E
:1027A0009C01AD016A897B898C899D890E94061FE5
:1027B000DC01CB018E879F87A88BB98B20C08091CD
:1027C0005F0290916002A0916102B09162029C014F
:1027D000AD016AE979E989E99EE30E94C31EDC0143
:1027E000CB019C01AD016A897B898C899D890E94FE
:1027F000061FDC01CB018E879F87A88BB98B2DEC40
:102800003CEC4CE45EE36E857F85888999890E9463
:10281000761F18160CF008C08DEC9CECACE4BEE3FF
:102820008E879F87A88BB98B888D998DAA8DBB8D3C
:102830008A879B87AC87BD87888D998DAA8DBB8D34
:102840008D839E83AF83B8878091C2018823C9F1AD
:102850002DEC3CEC4CE45DE36A857B858C859D85A5
:102860000E94731F88230CF02CC02DEC3CEC4CE430
:102870005DEB6A857B858C859D850E94761F181689
:102880000CF01FC02DEC3CEC4CE45DE36D817E81CF
:102890008F8198850E94731F88230CF012C02DEC45
:1028A0003CEC4CE45DEB6D817E818F8198850E94CC
:1028B000761F18160CF005C081E080935E0210921E
:1028C000C20180915E02882309F4FCC020E030E060
:1028D00040E85FE36A857B858C859D850E94761F35
:1028E00018160CF008C080E090E0A0E8BFE38A87EB
:1028F0009B87AC87BD8720E030E040E050E06A85F0
:102900007B858C859D850E94731F88230CF020C0D9
:1029100081E0898720E030E040E85FEB6A857B85D5
:102920008C859D850E94731F88230CF008C080E071
:1029300090E0A0E8BFEB8A879B87AC87BD878A853C
:102940009B85AC85BD85B0588A879B87AC87BD8742
:1029500020E030E040E85FE36D817E818F819885E3
:102960000E94761F18160CF008C080E090E0A0E8E6
:10297000BFE38D839E83AF83B88720E030E040E0E3
:1029800050E06D817E818F8198850E94731F88231E
:102990000CF020C081E08C8320E030E040E85FEB69
:1029A0006D817E818F8198850E94731F88230CF032
:1029B00008C080E090E0A0E8BFEB8D839E83AF83EA
:1029C000B8878D819E81AF81B885B0588D839E83F5
:1029D000AF83B8878C81C82EDD2420E030E04FE73C
:1029E00053E46D817E818F8198850E94E31FDC0115
:1029F000CB01BC01CD010E944C1FDC01CB018C013D
:102A00008985E82EFF2420E030E04FE753E46A8513
:102A10007B858C859D850E94E31FDC01CB01BC0179
:102A2000CD010E944C1FDC01CB01DF92CF921F939E
:102A30000F93FF92EF929F938F9382E492E09F9384
:102A40008F9380E490E09F938F93CE01C2969F93E3
:102A50008F930E94731B2DB73EB7225F3F4F0FB677
:102A6000F8943EBF0FBE2DBFCE01C2960E94A3199F
:102A700020E030E04FE753E46A857B858C859D85B7
:102A80000E94E31FDC01CB01BC01CD010E944C1F61
:102A9000DC01CB0169850E94510B20E030E04FE75B
:102AA00053E46D817E818F8198850E94E31FDC0154
:102AB000CB01BC01CD010E944C1FDC01CB016C811C
:102AC0000E94990BC957DF4F0FB6F894DEBF0FBEB7
:102AD000CDBFDF91CF911F910F91FF90EF90DF90CD
:102AE000CF9008951F920F920FB60F9211242F933B
:102AF0008F939F93CF93DF93CDB7DEB78091410340
:102B00008F5F8093410380913E0390913F03019634
:102B100090933F0380933E0380913E0390913F0347
:102B200023E0883E9207F9F410923F0310923E038F
:102B3000809142038F5F80934203809142038C33E4
:102B400091F410924203809140038F5F8093400381
:102B5000809140038C3339F41092400380913C0300
:102B60008F5F80933C03DF91CF919F918F912F9145
:102B70000F900FBE0F901F901895CF93DF93CDB796
:102B8000DEB7E5E4F0E08BE08083E4E4F0E010827F
:102B9000E3E4F0E08AEF8083A7E5B0E0E7E5F0E06A
:102BA000808180688C9310923F0310923E031092B4
:102BB00042031092400310923C03DF91CF9108959D
:102BC000CF93DF93CDB7DEB760E070E080E00E9486
:102BD0002F1760E070E88BE10E942F1760E070E82B
:102BE0008DE10E942F1760E070E88FE10E942F179F
:102BF00060E070E881E20E942F1760E07EE087E0ED
:102C00000E942F1760E073E08CE00E942F1785E28E
:102C10000E9461176DE870EA84E00E942F1767EF49
:102C20007FEF88E00E942F1761E573E885E00E943E
:102C30002F1760E277E486E00E942F1784E20E945B
:102C400061171092430310924403DF91CF910895CE
:102C5000CF93DF93CDB7DEB724970FB6F894DEBFDE
:102C60000FBECDBF84E20E94611799279A838983A2
:102C700089819A819C838B838B819C81803491058F
:102C800071F08B819C818138910529F08B819C8129
:102C9000009749F00BC081E0809344030AC082E0B2
:102CA0008093440306C01092440303C083E08093E2
:102CB000440324960FB6F894DEBF0FBECDBFDF915C
:102CC000CF910895CF93DF93CDB7DEB722970FB69C
:102CD000F894DEBF0FBECDBF86E00E946117992732
:102CE0009A83898389819A8181609A838983898182
:102CF0009A818D7F9A83898389819A81BC0186E03C
:102D00000E942F1786E00E94611799279A83898372
:102D100089819A8180619A83898389819A818F7D53
:102D20009A83898389819A81BC0186E00E942F174A
:102D300089E20E94611799279A83898389819A8100
:102D400090709A83898389819A812EEF3FEFB90130
:102D50000E942B20CB019A83898322960FB6F89488
:102D6000DEBF0FBECDBFDF91CF910895CF93DF932C
:102D7000CDB7DEB762E271E086E00E942F17DF91E7
:102D8000CF910895CF93DF93CDB7DEB722970FB6DB
:102D9000F894DEBF0FBECDBF9A83898385E20E947F
:102DA000611799270297E981FA8191838083E981EC
:102DB000FA81808191818F779070E981FA81918386
:102DC000808389819A81BC0181E00E94F11781E0B2
:102DD00090E022960FB6F894DEBF0FBECDBFDF9114
:102DE000CF910895CF93DF93CDB7DEB726970FB677
:102DF000F894DEBF0FBECDBF9C838B83EB81FC813B
:102E0000808191818E3791051CF01E821D821CC02D
:102E1000EB81FC818081918102969A8389838981EB
:102E20009A81BC0183E00E942F178B819C81BC0199
:102E300082E00E94951763E072E086E00E942F17FF
:102E400081E090E09E838D838D819E8126960FB6D2
:102E5000F894DEBF0FBECDBFDF91CF910895CF9321
:102E6000DF93CDB7DEB723970FB6F894DEBF0FBE62
:102E7000CDBF89837B836A8382E00E943505A8E306
:102E8000B0E0E8E3F0E090818EEF89238C938981B4
:102E90008F73898389810E9496058A819B810E9414
:102EA0000B06A8E3B0E0E8E3F0E0808181608C935A
:102EB00023960FB6F894DEBF0FBECDBFDF91CF9142
:102EC0000895CF93DF93CDB7DEB723970FB6F8946D
:102ED000DEBF0FBECDBF8B8382E00E943505A8E325
:102EE000B0E0E8E3F0E090818EEF89238C938B8152
:102EF0008F738B838B810E94960580E090E00E9407
:102F00000B069A838983A8E3B0E0E8E3F0E08081D0
:102F100081608C938981992723960FB6F894DEBF40
:102F20000FBECDBFDF91CF910895CF93DF93CDB783
:102F3000DEB725970FB6F894DEBF0FBECDBF8B83EB
:102F40007D836C8382E00E943505A8E3B0E0E8E36E
:102F5000F0E090818EEF89238C938B818F738B832C
:102F60008B810E9496051A82198222C089819A81DA
:102F70009C012F5F3F4F8C819D81820F931FFC012D
:102F8000329680819927582F442729813A818C8154
:102F90009D81820F931FFC01329680819927842B9B
:102FA000952B0E940B0689819A8102969A838983C8
:102FB000EC81FD812081318189819A81821793077B
:102FC000ACF2A8E3B0E0E8E3F0E0808181608C93AC
:102FD00025960FB6F894DEBF0FBECDBFDF91CF911F
:102FE0000895CF93DF93CDB7DEB727970FB6F89448
:102FF000DEBF0FBECDBF8D837F836E8382E00E94D4
:103000003505A8E3B0E0E8E3F0E090818EEF892396
:103010008C938D818F738D838D810E94960580E0C6
:103020000E94960599279C838B831C821B8226C055
:1030300080E090E00E940B069A8389832B813C817B
:1030400049818E819F81820F931FFC0132964083BC
:103050008B819C819C012F5F3F4F89819A81892FB1
:103060009927482F8E819F81820F931FFC013296F2
:1030700040838B819C8102969C838B83EE81FF81B0
:10308000208131818B819C81821793078CF2A8E388
:10309000B0E0E8E3F0E0808181608C9381E090E033
:1030A00027960FB6F894DEBF0FBECDBFDF91CF914C
:1030B00008951F920F920FB60F9211248F939F9332
:1030C000EF93FF93CF93DF93CDB7DEB72497DEBFA7
:1030D000CDBFEBE2F0E080818A83ECE2F0E080811A
:1030E0008B838A81887189838091A5028F5F8F711C
:1030F0008C839091A6028C81891719F482E08983D0
:103100000AC08C818093A5028C819927FC01ED5720
:10311000FD4F8B81808389818093A7022496F89448
:10312000DEBFCDBFDF91CF91FF91EF919F918F9146
:103130000F900FBE0F901F9018951F920F920FB611
:103140000F9211248F939F93AF93BF93EF93FF93AD
:10315000CF93DF93CDB7DEB72197DEBFCDBF909180
:10316000A3028091A402981791F08091A4028F5F2E
:103170008F71898389818093A402ACE2B0E0898158
:103180009927FC01ED59FD4F80818C9307C0AAE27D
:10319000B0E0EAE2F0E080818F7D8C932196F89494
:1031A000DEBFCDBFDF91CF91FF91EF91BF91AF9186
:1031B0009F918F910F900FBE0F901F901895CF93F6
:1031C000DF93CDB7DEB7A2E2B0E0E1E3F0E08081CB
:1031D00088608C93A1E3B0E0E1E3F0E08081886057
:1031E0008C9380E190E00E94FD1880E190E00E94C5
:1031F0007B1A7894DF91CF910895CF93DF93CDB769
:10320000DEB722970FB6F894DEBF0FBECDBF9A830C
:1032100089831092A3021092A4021092A502109228
:10322000A60289819A8199234CF4EBE2F0E082E0D6
:10323000808389819A819F779A838983E0E9F0E08E
:1032400089819A81892F99278083E9E2F0E0898139
:103250008083EAE2F0E088E98083E5E9F0E086E057
:10326000808322960FB6F894DEBF0FBECDBFDF91EC
:10327000CF910895CF93DF93CDB7DEB724970FB6E4
:10328000F894DEBF0FBECDBF9091A5028091A6023B
:10329000981729F480E091E09C838B831AC0809179
:1032A000A6028F5F8F718A838A818093A6028A81AA
:1032B0009927FC01ED57FD4F808189838091A702FA
:1032C0009927382F222789819927820F931F9C8362
:1032D0008B838B819C8124960FB6F894DEBF0FBE42
:1032E000CDBFDF91CF910895CF93DF93CDB7DEB7F8
:1032F00022970FB6F894DEBF0FBECDBF8A838091B0
:10330000A3028F5F8F7189839091A40289818917AD
:10331000D9F389819927FC01ED59FD4F8A8180837A
:1033200089818093A302AAE2B0E0EAE2F0E0808122
:1033300080628C9322960FB6F894DEBF0FBECDBF8D
:10334000DF91CF910895CF93DF93CDB7DEB722976A
:103350000FB6F894DEBF0FBECDBF9A8389830CC031
:10336000E981FA818081282F89819A8101969A8347
:103370008983822F0E947419E981FA8180818823D0
:1033800079F722960FB6F894DEBF0FBECDBFDF915E
:10339000CF910895CF93DF93CDB7DEB726970FB6C1
:1033A000F894DEBF0FBECDBF9D838C8303C08E819A
:1033B0000E9474198C819D819B838A838C819D815D
:1033C00001969D838C83EA81FB8184918983898125
:1033D0008E838E81882359F726960FB6F894DEBF28
:1033E0000FBECDBFDF91CF9108951F920F920FB600
:1033F0000F9211248F939F93EF93FF93CF93DF93BB
:10340000CDB7DEB72497DEBFCDBFEBE9F0E080811A
:103410008A83ECE9F0E080818B838A8188718983DB
:103420008091EA028F5F8F718C839091EB028C8187
:10343000891719F482E089830AC08C818093EA029B
:103440008C819927FC01E853FD4F8B818083898112
:103450008093EC022496F894DEBFCDBFDF91CF912C
:10346000FF91EF919F918F910F900FBE0F901F9042
:1034700018951F920F920FB60F9211248F939F935E
:10348000AF93BF93EF93FF93CF93DF93CDB7DEB7A7
:103490002197DEBFCDBF9091E8028091E902981795
:1034A00091F08091E9028F5F8F7189838981809388
:1034B000E902ACE9B0E089819927FC01E855FD4FAC
:1034C00080818C9307C0AAE9B0E0EAE9F0E080814E
:1034D0008F7D8C932196F894DEBFCDBFDF91CF9185
:1034E000FF91EF91BF91AF919F918F910F900FBE80
:1034F0000F901F901895CF93DF93CDB7DEB722972B
:103500000FB6F894DEBF0FBECDBF9A8389831092A9
:10351000E8021092E9021092EA021092EB0289810D
:103520009A8199234CF4EBE9F0E082E08083898171
:103530009A819F779A838983E8E9F0E089819A816B
:10354000892F99278083E9E9F0E089818083EAE97E
:10355000F0E088E98083EDE9F0E086E08083229660
:103560000FB6F894DEBF0FBECDBFDF91CF910895A7
:10357000CF93DF93CDB7DEB724970FB6F894DEBFB5
:103580000FBECDBF9091EA028091EB02981729F40B
:1035900080E091E09C838B831AC08091EB028F5F67
:1035A0008F718A838A818093EB028A819927FC013B
:1035B000E853FD4F808189838091EC029927382F51
:1035C000222789819927820F931F9C838B838B816C
:1035D0009C8124960FB6F894DEBF0FBECDBFDF915D
:1035E000CF910895CF93DF93CDB7DEB722970FB673
:1035F000F894DEBF0FBECDBF8A838091E8028F5F53
:103600008F7189839091E90289818917D9F3898122
:103610009927FC01E855FD4F8A8180838981809339
:10362000E802AAE9B0E0EAE9F0E0808180628C93E8
:1036300022960FB6F894DEBF0FBECDBFDF91CF91BB
:103640000895CF93DF93CDB7DEB722970FB6F894E6
:10365000DEBF0FBECDBF9A8389830CC0E981FA819A
:103660008081282F89819A8101969A838983822F6C
:103670000E94F21AE981FA818081882379F72296E3
:103680000FB6F894DEBF0FBECDBFDF91CF91089586
:10369000CF93DF93CDB7DEB726970FB6F894DEBF92
:1036A0000FBECDBF9D838C8303C08E810E94F21A12
:1036B0008C819D819B838A838C819D8101969D83D2
:1036C0008C83EA81FB818491898389818E838E81B9
:1036D000882359F726960FB6F894DEBF0FBECDBFEC
:1036E000DF91CF9108950F931F93CF93DF93CDB7C1
:1036F000DEB760970FB6F894DEBF0FBECDBF0F895F
:10370000188D898D9A8D97FF03C08FEF9FE701C0B9
:10371000019798878F831C830B8386E08E83AE018D
:10372000435E5F4F5A8349836B8D7C8DCE01039638
:103730000E94AF1B2F813885821793070CF49C01E0
:10374000020F131FF801108260960FB6F894DEBFC7
:103750000FBECDBFDF91CF911F910F9108952F9292
:103760003F924F925F926F927F928F929F92AF9211
:10377000BF92CF92DF92EF92FF920F931F93CF935E
:10378000DF93CDB7DEB764970FB6F894DEBF0FBEF8
:10379000CDBFCC24DD2476011C017C8B6B8B2A01F0
:1037A000FC0117821682838181FD03C08FEF9FEF9A
:1037B00085C2AA24BB246FC2A0FE54C28A8980534A
:1037C0008A30E8F4FA89F03341F42D85222329F474
:1037D000A3FC03C080E091E06FC08AE0ED85E802C1
:1037E000C0011124FA89F80FF053FD87F7FF02C0DA
:1037F0002FE72D87A3FC49C23D853E8746C2C50100
:1038000088709070A3FE05C0ED85EE2311F4F1E001
:10381000FD872A89283624F525360CF05BC0233530
:1038200009F480C024358CF42B32C1F12C3234F4ED
:103830002032C1F1233209F00AC23CC03A893D323C
:10384000B1F13E3209F003C23AC08A89833609F4E5
:1038500049C084360CF081C0883509F0F8C11BC01E
:10386000EA89E03709F4A3C0E13744F4EC3669F1A2
:10387000EF3671F0E93609F0EAC16FC0FA89F53721
:1038800009F49DC0F83739F0F33709F0E0C134C0CE
:1038900028E0298B94C030E1398B91C080E190E021
:1038A000A82AB92AE0E2F0E0AE2ABF2AEEC120E859
:1038B00030E00DC080E490E0A82AB92AE6C1E8E033
:1038C000F0E0AE2ABF2A1D86E0C124E030E0A22A43
:1038D000B32ADBC13FE3C32E3E8531503E8783E6EA
:1038E0008A8B41C1F201C080FE85F150FE8722E043
:1038F00030E0420E531E37C1F201C080D180892BC7
:1039000049F0FD856F2F772767FD7095C6010E94EE
:103910008B1E19C0F60101900020E9F73197EC19D0
:10392000E98B12C0F201C080D180892B49F0FD855E
:103930006F2F772767FD7095C6010E94801E03C018
:10394000C6010E94771E898B22E030E0420E531E92
:103950003E858989381B3E8706C1A2FE08C0F20158
:1039600080819181A281B38124E030E009C0F2011D
:1039700080819181AA2797FDA095BA2F22E030E09F
:10398000420E531E6C017D01B7FF0CC082E090E037
:10399000A82AB92AF094E094D094C094C11CD11CF8
:1039A000E11CF11CEFEBFFEFAE22BF2221C020E4AF
:1039B00030E0A22AB32A38E73A8B80E1898BA2FE55
:1039C00008C0F20180819181A281B38124E030E0BE
:1039D00007C0F20180819181AA27BB2722E030E055
:1039E000420E531E6C017D018FEC9FEFA822B9227D
:1039F00087017601FE013196F88BEF87F9896F2EEA
:103A0000772488249924C801B701A40193010E9456
:103A10006D206A3024F02A89620F615201C0605D16
:103A2000EF85F8896193F88BEF87C801B701A4018E
:103A300093010E946D2079018A012115310541050C
:103A4000510509F7CC24DD247601CE010196CF84FF
:103A5000C81AC50182739070892B19F0FE85F15048
:103A6000FE87A6FE09C02989203111F482E001C039
:103A700081E03E85381B3E8728E0822E912C8A20EB
:103A80009B20A3FE18C08D85282F332727FD309556
:103A90008C2D9927821793073CF0E7EFFFEFAE22BA
:103AA000BF228824992407C0FD85FC19FD872E8537
:103AB0002F1B2E8703C03E853C193E87C5018078A9
:103AC0009170892B69F48E8506C0B10180E290E087
:103AD0000E94961E812F182F11501816B4F31E87BE
:103AE000A1FE04C0B1018DE290E00BC0A4FE04C0B1
:103AF000B1018BE290E005C0A5FE05C0B10180E2F6
:103B000090E00E94961EA6FE10C0B10180E390E0F6
:103B10000E94961E8989803141F4B101EA898E2F75
:103B2000992787FD90950E94961EB0FE0DC08E8548
:103B300006C0B10180E390E00E94961E812F182FED
:103B400011501816B4F31E87892869F02D8506C018
:103B5000B10180E390E00E94961E212F122F115098
:103B60001216B4F31D8790E8692E712C6A207B2011
:103B7000A7FC0DC08E8506C0B10180E290E00E94D6
:103B8000961E812F182F11501816B4F31E87FA892C
:103B9000F33641F4B1018C2D992787FD90950E9451
:103BA000961E45C02A892337B1F44601560119896A
:103BB00009C0F50181915F01B101992787FD9095B9
:103BC0000E94961E1150A8F76401F989CF0ED11CEE
:103BD0002FEF298B2CC03A89333519F00F851889BE
:103BE0001FC046018601B98808C0F8018491B1015F
:103BF00099270E94961E0F5F1F4FBA94FFEFBF16C2
:103C0000A1F764012989C20ED11CF98B10C0F801FB
:103C100082918F01B101992787FD90950E94961E90
:103C2000CE0101960817190791F7188B0F8767289F
:103C3000B1F08E8506C0B10180E290E00E94961E30
:103C4000812F182F11501816B4F31E8708C0B10128
:103C5000FA898F2F992787FD90950E94961EAA2496
:103C6000BB2413C02A89253241F43AE0398B1E86E1
:103C70001D8681E0A82EB12C08C0B101EA898E2FE3
:103C8000992787FD90950E94961E2B893C892F5F6E
:103C90003F4F3C8B2B8BF101838183FF04C0EB8969
:103CA000FC89F49103C0EB89FC89F081FA8B2A89A5
:103CB000222309F081CDF1018681978164960FB6A8
:103CC000F894DEBF0FBECDBFDF91CF911F910F9152
:103CD000FF90EF90DF90CF90BF90AF909F908F902C
:103CE0007F906F905F904F903F902F900895FC01D0
:103CF00005900020E9F7809590958E0F9F1F0895FD
:103D0000FC010590615070400110D8F780959095A6
:103D10008E0F9F1F0895FC016150704001900110AB
:103D2000D8F7809590958E0F9F1F08950F931F933E
:103D3000CF93DF938C01EB018B81992781FF1BC00F
:103D400082FF0DC02E813F818C819D81281739070C
:103D500064F4E881F9810193F983E88306C0E8857A
:103D6000F985802F0995892B31F48E819F810196E9
:103D70009F838E8302C00FEF1FEFC801DF91CF91A9
:103D80001F910F9108955058192EEFD001D0D2C035
:103D9000BA176207730784079507B1F188F40EF428
:103DA00010940B2EBA2FA02D062E622F202D072E39
:103DB000732F302D082E842F402D092E952F502D36
:103DC000FF275523B9F0591B49F0573E98F0469507
:103DD00037952795A795F0405395C9F776F0BA0F18
:103DE000621F731F841F30F4879577956795B79589
:103DF000F040939517FA0F2E0895BF1BBB27BA0BFF
:103E0000620B730B840BF6CFDEF6DBC0AED001D0B5
:103E100091C0552359F0992369F09F575F57951B1F
:103E200033F442F4903811F4915805C09BC0915876
:103E30009F3F09F4C6C0BB2711246217730784078C
:103E400030F4660F771F881FBB1F915098F311D075
:103E50000F920FD00F920DD0A0E826173707480712
:103E60001B0609F0A048BA2F602D7F918F91002486
:103E70000895A0E80024621773078407B10528F0AD
:103E8000621B730B840BB1090A2A660F771F881F08
:103E9000BB1FA69581F7089597FB73D09F3738F025
:103EA000FEE9F91B982F872F762F6B2F05C086C050
:103EB0009695879577956795F150D0F73EF4909554
:103EC0008095709561957F4F8F4F9F4F0895E8942F
:103ED00003C097FB0EF4F3DFB62F672F782F892FDF
:103EE0009EE9002427C00ED05EF004C00BD026F05F
:103EF00001C008D019F020F48FEF089580E00895F4
:103F000081E0089597FB092E052600F8689430D0CB
:103F1000E89407FC07C0621773078407950721F030
:103F200008F400940794989408959A95BB0F661F1F
:103F3000771F881F11249923A1F08823B2F79F3F90
:103F400059F0BB0F48F421F4002011F460FF04C0C5
:103F50006F5F7F4F8F4F9F4F881F9795879597F97A
:103F600008952CC09FEF80EC0895052E092607FACE
:103F7000440F551F5F3F79F0AA27A51708F051E0BD
:103F80004795880F991F9F3F31F0BB27B91708F05D
:103F900091E0879508959F919F911124E3CF97FB1E
:103FA000880F991F9F3F31F0BB27B91708F091E0A8
:103FB000879508959F919F911124D4CF66277727E5
:103FC000882799270895D1DF01D0B4CF992339F0FC
:103FD000552329F09F575F57950F13F49AF1F1CFAE
:103FE00091589F3FE1F3629FA12D0F92BB27639FE2
:103FF000A00DB11DEE27729FA00DB11DEE1FAF9356
:10400000AA27649FB00DE11D739FB00DE11DAA1F8B
:104010006627829FB00DE11DA61F5527749FE00DF6
:10402000A11D551F839FE00DA11D561F849FA00D4C
:10403000511D852F7A2F6E2F1F900F9088231AF411
:10404000939539F48FCF000C111CBB1F661F771F8F
:10405000881F01280895AA1BBB1B51E107C0AA1F96
:10406000BB1FA617B70710F0A61BB70B881F991F19
:104070005A95A9F780959095BC01CD01089597FBBD
:10408000092E07260AD077FD04D0E5DF06D00020F0
:104090001AF4709561957F4F0895F6F79095819584
:1040A0009F4F089597FB092E05260ED057FD04D08B
:1040B00014D00AD0001C38F45095409530952195C5
:1040C0003F4F4F4F5F4F0895F6F79095809570954D
:1040D00061957F4F8F4F9F4F0895A1E21A2EAA1B23
:1040E000BB1BFD010DC0AA1FBB1FEE1FFF1FA217A8
:1040F000B307E407F50720F0A21BB30BE40BF50BA5
:10410000661F771F881F991F1A9469F7609570952D
:0E411000809590959B01AC01BD01CF010895F3
:10411E004144432025643A2025642F313032342027
:10412E000D0A0025635B324A0054656D703A2047D4
:10413E0079726F31202575094779726F3220257596
:10414E000A0D0025750925640925640925640A0DE3
:10415E00002564092575092564206D560A0D004D4C
:10416E006F746F72204672657175656E63793A2051
:10417E00256C6420487A0A0D004D6F746F722031E1
:10418E003A2025642F256420282564202525290919
:10419E00444952202564090A0D004D6F746F722038
:1041AE00323A2025642F25642028256420252529D0
:1041BE00094449522025640A0D0025643A25643AC3
:1041CE0025643A2564000000C84100004842000002
:1041DE00F0420152499D3A0A0D312320475F617624
:1041EE00672025642C20415F6820256420415F6C88
:1041FE002025640A0D00322320743A2025642C20D9
:10420E00732025640A0D0050415223206B5F6F20EE
:10421E0025642C206B5F612025642C206375722031
:10422E0025642C207374656572202564200A0D00A8
:10423E003323207068693A2025640A0D0034232048
:10424E0062616C3A2025642C206375723A25640AEB
:10425E000D003523204D313A2025642C2564204D48
:0A426E00322025642C25640A0D009F
:00000001FF
